{
  "contractName": "Dejournal",
  "abi": [
    {
      "constant": true,
      "inputs": [],
      "name": "lastPaperId",
      "outputs": [
        {
          "name": "",
          "type": "uint256"
        }
      ],
      "payable": false,
      "stateMutability": "view",
      "type": "function"
    },
    {
      "constant": true,
      "inputs": [
        {
          "name": "",
          "type": "uint256"
        }
      ],
      "name": "papers",
      "outputs": [
        {
          "name": "sender",
          "type": "address"
        },
        {
          "name": "content",
          "type": "string"
        },
        {
          "name": "timestamp",
          "type": "uint256"
        }
      ],
      "payable": false,
      "stateMutability": "view",
      "type": "function"
    },
    {
      "constant": true,
      "inputs": [],
      "name": "owner",
      "outputs": [
        {
          "name": "",
          "type": "address"
        }
      ],
      "payable": false,
      "stateMutability": "view",
      "type": "function"
    },
    {
      "constant": true,
      "inputs": [],
      "name": "price",
      "outputs": [
        {
          "name": "",
          "type": "uint256"
        }
      ],
      "payable": false,
      "stateMutability": "view",
      "type": "function"
    },
    {
      "inputs": [
        {
          "name": "_price",
          "type": "uint256"
        }
      ],
      "payable": false,
      "stateMutability": "nonpayable",
      "type": "constructor"
    },
    {
      "anonymous": false,
      "inputs": [
        {
          "indexed": true,
          "name": "_previousOwner",
          "type": "address"
        },
        {
          "indexed": true,
          "name": "_newOwner",
          "type": "address"
        }
      ],
      "name": "OwnershipTransferred",
      "type": "event"
    },
    {
      "anonymous": false,
      "inputs": [
        {
          "indexed": true,
          "name": "_hashSender",
          "type": "address"
        },
        {
          "indexed": false,
          "name": "_hashId",
          "type": "uint256"
        },
        {
          "indexed": false,
          "name": "_hashContent",
          "type": "string"
        },
        {
          "indexed": false,
          "name": "timestamp",
          "type": "uint256"
        }
      ],
      "name": "NewPaperStored",
      "type": "event"
    },
    {
      "anonymous": false,
      "inputs": [
        {
          "indexed": true,
          "name": "_hashSender",
          "type": "address"
        },
        {
          "indexed": false,
          "name": "_hashId",
          "type": "uint256"
        },
        {
          "indexed": false,
          "name": "_reference",
          "type": "uint256"
        },
        {
          "indexed": false,
          "name": "_hashContent",
          "type": "string"
        },
        {
          "indexed": false,
          "name": "timestamp",
          "type": "uint256"
        }
      ],
      "name": "NewVersionStored",
      "type": "event"
    },
    {
      "anonymous": false,
      "inputs": [
        {
          "indexed": true,
          "name": "_hashSender",
          "type": "address"
        },
        {
          "indexed": false,
          "name": "amount",
          "type": "uint256"
        }
      ],
      "name": "Withdrawn",
      "type": "event"
    },
    {
      "constant": false,
      "inputs": [
        {
          "name": "_newOwner",
          "type": "address"
        }
      ],
      "name": "transferOwnership",
      "outputs": [],
      "payable": false,
      "stateMutability": "nonpayable",
      "type": "function"
    },
    {
      "constant": false,
      "inputs": [],
      "name": "withdrawBalance",
      "outputs": [],
      "payable": false,
      "stateMutability": "nonpayable",
      "type": "function"
    },
    {
      "constant": false,
      "inputs": [
        {
          "name": "_hashContent",
          "type": "string"
        }
      ],
      "name": "saveNewPaper",
      "outputs": [],
      "payable": true,
      "stateMutability": "payable",
      "type": "function"
    },
    {
      "constant": false,
      "inputs": [
        {
          "name": "_hashContent",
          "type": "string"
        },
        {
          "name": "_reference",
          "type": "uint256"
        }
      ],
      "name": "saveNewVersion",
      "outputs": [],
      "payable": true,
      "stateMutability": "payable",
      "type": "function"
    },
    {
      "constant": true,
      "inputs": [
        {
          "name": "_id",
          "type": "uint256"
        }
      ],
      "name": "getPaperByID",
      "outputs": [
        {
          "name": "hashSender",
          "type": "address"
        },
        {
          "name": "hashContent",
          "type": "string"
        },
        {
          "name": "hashTimestamp",
          "type": "uint256"
        },
        {
          "name": "hashNumVersions",
          "type": "uint256"
        }
      ],
      "payable": false,
      "stateMutability": "view",
      "type": "function"
    },
    {
      "constant": true,
      "inputs": [
        {
          "name": "_paperId",
          "type": "uint256"
        },
        {
          "name": "_verId",
          "type": "uint256"
        }
      ],
      "name": "getVersionByID",
      "outputs": [
        {
          "name": "_version",
          "type": "uint256"
        }
      ],
      "payable": false,
      "stateMutability": "view",
      "type": "function"
    },
    {
      "constant": true,
      "inputs": [],
      "name": "getLastPaperId",
      "outputs": [
        {
          "name": "_lastPaperId",
          "type": "uint256"
        }
      ],
      "payable": false,
      "stateMutability": "view",
      "type": "function"
    }
  ],
  "bytecode": "0x608060405234801561001057600080fd5b5060405160208061139a8339810180604052602081101561003057600080fd5b81019080805190602001909291905050506000811161004e57600080fd5b33600160006101000a81548173ffffffffffffffffffffffffffffffffffffffff021916908373ffffffffffffffffffffffffffffffffffffffff160217905550806003819055506000600281905550506112ec806100ae6000396000f3fe60806040526004361061009c5760003560e01c806387b3ebfe1161006457806387b3ebfe146102b75780638da5cb5b1461037c578063a035b1fe146103d3578063aa5a5a68146103fe578063b8517caf146104f3578063f2fde38b1461054c5761009c565b8063033c5dd9146100a15780631bc02468146100cc578063237fc2fb146100f75780635e775a27146101b25780635fd8c710146102a0575b600080fd5b3480156100ad57600080fd5b506100b661059d565b6040518082815260200191505060405180910390f35b3480156100d857600080fd5b506100e16105a7565b6040518082815260200191505060405180910390f35b6101b06004803603602081101561010d57600080fd5b810190808035906020019064010000000081111561012a57600080fd5b82018360208201111561013c57600080fd5b8035906020019184600183028401116401000000008311171561015e57600080fd5b91908080601f016020809104026020016040519081016040528093929190818152602001838380828437600081840152601f19601f8201169050808301925050505050505091929192905050506105ad565b005b3480156101be57600080fd5b506101eb600480360360208110156101d557600080fd5b810190808035906020019092919050505061070b565b604051808473ffffffffffffffffffffffffffffffffffffffff1673ffffffffffffffffffffffffffffffffffffffff16815260200180602001838152602001828103825284818151815260200191508051906020019080838360005b83811015610263578082015181840152602081019050610248565b50505050905090810190601f1680156102905780820380516001836020036101000a031916815260200191505b5094505050505060405180910390f35b3480156102ac57600080fd5b506102b56107ed565b005b61037a600480360360408110156102cd57600080fd5b81019080803590602001906401000000008111156102ea57600080fd5b8201836020820111156102fc57600080fd5b8035906020019184600183028401116401000000008311171561031e57600080fd5b91908080601f016020809104026020016040519081016040528093929190818152602001838380828437600081840152601f19601f8201169050808301925050505050505091929192908035906020019092919050505061095c565b005b34801561038857600080fd5b50610391610db6565b604051808273ffffffffffffffffffffffffffffffffffffffff1673ffffffffffffffffffffffffffffffffffffffff16815260200191505060405180910390f35b3480156103df57600080fd5b506103e8610ddc565b6040518082815260200191505060405180910390f35b34801561040a57600080fd5b506104376004803603602081101561042157600080fd5b8101908080359060200190929190505050610de2565b604051808573ffffffffffffffffffffffffffffffffffffffff1673ffffffffffffffffffffffffffffffffffffffff16815260200180602001848152602001838152602001828103825285818151815260200191508051906020019080838360005b838110156104b557808201518184015260208101905061049a565b50505050905090810190601f1680156104e25780820380516001836020036101000a031916815260200191505b509550505050505060405180910390f35b3480156104ff57600080fd5b506105366004803603604081101561051657600080fd5b810190808035906020019092919080359060200190929190505050610f0e565b6040518082815260200191505060405180910390f35b34801561055857600080fd5b5061059b6004803603602081101561056f57600080fd5b81019080803573ffffffffffffffffffffffffffffffffffffffff169060200190929190505050610f43565b005b6000600254905090565b60025481565b6003543410156105bc57600080fd5b60006105c782611097565b905060008082815260200190815260200160002060000160009054906101000a900473ffffffffffffffffffffffffffffffffffffffff1673ffffffffffffffffffffffffffffffffffffffff167f693c9fe145cafe7e9fab7b48bf81d2a79bb9ee5005fbe7eed0770bcc767cae10826000808581526020019081526020016000206001016000808681526020019081526020016000206002015460405180848152602001806020018381526020018281038252848181546001816001161561010002031660029004815260200191508054600181600116156101000203166002900480156106f75780601f106106cc576101008083540402835291602001916106f7565b820191906000526020600020905b8154815290600101906020018083116106da57829003601f168201915b505094505050505060405180910390a25050565b60006020528060005260406000206000915090508060000160009054906101000a900473ffffffffffffffffffffffffffffffffffffffff1690806001018054600181600116156101000203166002900480601f0160208091040260200160405190810160405280929190818152602001828054600181600116156101000203166002900480156107dd5780601f106107b2576101008083540402835291602001916107dd565b820191906000526020600020905b8154815290600101906020018083116107c057829003601f168201915b5050505050908060020154905083565b600160009054906101000a900473ffffffffffffffffffffffffffffffffffffffff1673ffffffffffffffffffffffffffffffffffffffff163373ffffffffffffffffffffffffffffffffffffffff161461084757600080fd5b60003073ffffffffffffffffffffffffffffffffffffffff163190506000600160009054906101000a900473ffffffffffffffffffffffffffffffffffffffff1690508073ffffffffffffffffffffffffffffffffffffffff166108fc3073ffffffffffffffffffffffffffffffffffffffff16319081150290604051600060405180830381858888f193505050501580156108e7573d6000803e3d6000fd5b50600160009054906101000a900473ffffffffffffffffffffffffffffffffffffffff1673ffffffffffffffffffffffffffffffffffffffff167f7084f5476618d8e60b11ef0d7d3f06914655adb8793e28ff7f018d4c76d505d5836040518082815260200191505060405180910390a25050565b60035434101561096b57600080fd5b61097361118b565b6000808381526020019081526020016000206040518060800160405290816000820160009054906101000a900473ffffffffffffffffffffffffffffffffffffffff1673ffffffffffffffffffffffffffffffffffffffff1673ffffffffffffffffffffffffffffffffffffffff168152602001600182018054600181600116156101000203166002900480601f016020809104026020016040519081016040528092919081815260200182805460018160011615610100020316600290048015610a7f5780601f10610a5457610100808354040283529160200191610a7f565b820191906000526020600020905b815481529060010190602001808311610a6257829003601f168201915b505050505081526020016002820154815260200160038201805480602002602001604051908101604052809291908181526020018280548015610ae157602002820191906000526020600020905b815481526020019060010190808311610acd575b5050505050815250509050600073ffffffffffffffffffffffffffffffffffffffff16816000015173ffffffffffffffffffffffffffffffffffffffff1614158015610b3257506000816020015151115b8015610b42575060008160400151115b610b4b57600080fd5b806000015173ffffffffffffffffffffffffffffffffffffffff163373ffffffffffffffffffffffffffffffffffffffff1614610b8757600080fd5b6000610b9284611097565b9050600080848152602001908152602001600020600301600080838152602001908152602001600020600301908054610bcc9291906111c9565b5060008090505b60008085815260200190815260200160002060030180549050811015610c69576000808060008781526020019081526020016000206003018381548110610c1657fe5b906000526020600020015481526020019081526020016000206003018290806001815401808255809150509060018203906000526020600020016000909192909190915055508080600101915050610bd3565b5060008082815260200190815260200160002060000160009054906101000a900473ffffffffffffffffffffffffffffffffffffffff1673ffffffffffffffffffffffffffffffffffffffff167f48806570fcf6eca75242bf9dcd808e8ec203d3bc6846ff4fd109435cb057a2858285600080868152602001908152602001600020600101600080878152602001908152602001600020600201546040518085815260200184815260200180602001838152602001828103825284818154600181600116156101000203166002900481526020019150805460018160011615610100020316600290048015610d9f5780601f10610d7457610100808354040283529160200191610d9f565b820191906000526020600020905b815481529060010190602001808311610d8257829003601f168201915b50509550505050505060405180910390a250505050565b600160009054906101000a900473ffffffffffffffffffffffffffffffffffffffff1681565b60035481565b6000606060008060008086815260200190815260200160002060000160009054906101000a900473ffffffffffffffffffffffffffffffffffffffff166000808781526020019081526020016000206001016000808881526020019081526020016000206002015460008089815260200190815260200160002060030180549050828054600181600116156101000203166002900480601f016020809104026020016040519081016040528092919081815260200182805460018160011615610100020316600290048015610ef85780601f10610ecd57610100808354040283529160200191610ef8565b820191906000526020600020905b815481529060010190602001808311610edb57829003601f168201915b5050505050925093509350935093509193509193565b60008060008481526020019081526020016000206003018281548110610f3057fe5b9060005260206000200154905092915050565b600160009054906101000a900473ffffffffffffffffffffffffffffffffffffffff1673ffffffffffffffffffffffffffffffffffffffff163373ffffffffffffffffffffffffffffffffffffffff1614610f9d57600080fd5b600073ffffffffffffffffffffffffffffffffffffffff168173ffffffffffffffffffffffffffffffffffffffff161415610fd757600080fd5b80600160006101000a81548173ffffffffffffffffffffffffffffffffffffffff021916908373ffffffffffffffffffffffffffffffffffffffff1602179055508073ffffffffffffffffffffffffffffffffffffffff16600160009054906101000a900473ffffffffffffffffffffffffffffffffffffffff1673ffffffffffffffffffffffffffffffffffffffff167f8be0079c531659141344cd1fd0a4f28419497f9722a3daafe3b4186f6b6457e060405160405180910390a350565b60008060026000815460010191905081905590503360008083815260200190815260200160002060000160006101000a81548173ffffffffffffffffffffffffffffffffffffffff021916908373ffffffffffffffffffffffffffffffffffffffff16021790555082600080838152602001908152602001600020600101908051906020019061112892919061121b565b50426000808381526020019081526020016000206002018190555060008082815260200190815260200160002060030181908060018154018082558091505090600182039060005260206000200160009091929091909150555080915050919050565b6040518060800160405280600073ffffffffffffffffffffffffffffffffffffffff1681526020016060815260200160008152602001606081525090565b82805482825590600052602060002090810192821561120a5760005260206000209182015b828111156112095782548255916001019190600101906111ee565b5b509050611217919061129b565b5090565b828054600181600116156101000203166002900490600052602060002090601f016020900481019282601f1061125c57805160ff191683800117855561128a565b8280016001018555821561128a579182015b8281111561128957825182559160200191906001019061126e565b5b509050611297919061129b565b5090565b6112bd91905b808211156112b95760008160009055506001016112a1565b5090565b9056fea165627a7a72305820588c2c62a131a440a6db87bca2ec3210c4964bdbc4de1fd5cb1f550c3ad06aac0029",
  "source": "pragma solidity >=0.4.17;\n\ncontract Dejournal {\n  /*\n  *  Events\n  */\n  event OwnershipTransferred(address indexed _previousOwner, address indexed _newOwner);\n  event NewPaperStored(address indexed _hashSender, uint _hashId, string _hashContent, uint timestamp);\n  event NewVersionStored(address indexed _hashSender, uint _hashId, uint _reference, string _hashContent, uint timestamp);\n  event Withdrawn(address indexed _hashSender, uint amount);\n\n  /*\n  * Storage\n  */\n\n  struct Paper {\n    // sender address\n    address sender;\n    // hash text\n    string content;\n    // creation timestamp\n    uint timestamp;\n    // other versions\n    uint[] versions;\n}\n\n  // Papers mapping\n  mapping(uint => Paper) public papers;\n  // Contract owner\n  address public owner;\n  // Last stored Hash Id\n  uint public lastPaperId;\n  // Service price in Wei\n  uint public price;\n\n  /*\n  * Modifiers\n  */\n\n  modifier onlyOwner() {\n    require(msg.sender == owner);\n    _;\n  }\n\n  /*\n  * Public functions\n  */\n\n  /**\n  * @dev Contract constructor\n  * @param _price Service price\n  */\n  constructor(uint _price) public {\n    // check price valid\n    require(_price > 0);\n\n    // assign owner\n    owner = msg.sender;\n    // assign price\n    price = _price;\n    // init ids\n    lastPaperId = 0;\n  }\n\n  /**\n  * @dev Transfer contract ownership\n  * @param _newOwner New owner address\n  */\n  function transferOwnership(address _newOwner) onlyOwner public {\n    // check address not null\n    require(_newOwner != address(0));\n\n    // assign new owner\n    owner = _newOwner;\n\n    // Log event\n    emit OwnershipTransferred(owner, _newOwner);\n  }\n\n  /**\n  * @dev Withdraw contract accumulated Eth balance\n  */\n  function withdrawBalance() onlyOwner public {\n    uint amount = address(this).balance;\n    address payable ownerp = address(uint160(owner));\n\n    // transfer balance\n    ownerp.transfer(address(this).balance);\n\n    // Log event\n    emit Withdrawn(owner, amount);\n  }\n\n  /**\n  * @dev save new paper\n  * @param _hashContent Hash Content\n  */\n\n  function savePaper(string memory _hashContent) private returns (uint _paperId) {\n    // create Hash\n    uint paperId = ++lastPaperId;\n    papers[paperId].sender = msg.sender;\n    papers[paperId].content = _hashContent;\n    papers[paperId].timestamp = block.timestamp;\n    papers[paperId].versions.push(paperId);\n\n    return(paperId);\n  }\n\n\n  /**\n  * @dev saveNewPaper new hash\n  * @param _hashContent Hash Content\n  */\n  function saveNewPaper(string memory _hashContent) payable public {\n    // only save if service price paid\n    require(msg.value >= price);\n\n    // create Hash\n    uint paperId = savePaper(_hashContent);\n\n    // Log event\n    emit NewPaperStored(papers[paperId].sender, paperId, papers[paperId].content, papers[paperId].timestamp);\n  }\n\n    /**\n  * @dev saveNewVersion new version\n  * @param _hashContent Hash Content, _reference Paper Reference\n  */\n  function saveNewVersion(string memory _hashContent, uint _reference) payable public {\n    // only save if service price paid\n    require(msg.value >= price);\n\n    // find referred paper\n    Paper memory originalPaper = papers[_reference];\n    // first check if it's a valid reference\n    require(originalPaper.sender != address(0) && bytes(originalPaper.content).length > 0 && originalPaper.timestamp > 0 );\n    // check if the sender is the original author of the paper\n    require(msg.sender==originalPaper.sender);\n    // add new hash as new paper\n    uint paperId = savePaper(_hashContent);\n    // add references to other versions and add this version as new reference.\n    papers[paperId].versions=papers[_reference].versions;\n    //hashes[paperID].versions.push(paperID);\n    // add this paperID to the reference paper versions array and all other versions\n    for (uint i=0; i<papers[_reference].versions.length; i++) {\n        papers[papers[_reference].versions[i]].versions.push(paperId);\n    }\n    // Log event\n    emit NewVersionStored(papers[paperId].sender, paperId, _reference, papers[paperId].content, papers[paperId].timestamp);\n  }\n\n  /**\n  * @dev find hash by id\n  * @param _id Hash Id\n  */\n\n  function getPaperByID(uint _id) view public returns (address hashSender, string memory hashContent, uint hashTimestamp, uint hashNumVersions) {   \n        return (papers[_id].sender,papers[_id].content, papers[_id].timestamp,papers[_id].versions.length); \n    }\n\n    function getVersionByID(uint _paperId, uint _verId) view public returns (uint _version) {\n        return papers[_paperId].versions[_verId];\n    }\n\n    function getLastPaperId() public view returns (uint _lastPaperId) {\n        return lastPaperId;\n    }\n}\n",
  "sourcePath": "/home/tilen/dev/dejournal-new/contracts/Dejournal.sol",
  "compiler": {
    "name": "solc",
    "version": "0.5.8+commit.23d335f2.Emscripten.clang"
  },
  "schemaVersion": "3.0.10",
  "updatedAt": "2019-06-16T18:49:45.374Z",
  "devdoc": {
    "methods": {
      "constructor": {
        "details": "Contract constructor",
        "params": {
          "_price": "Service price"
        }
      },
      "getPaperByID(uint256)": {
        "details": "find hash by id",
        "params": {
          "_id": "Hash Id"
        }
      },
      "saveNewPaper(string)": {
        "details": "saveNewPaper new hash",
        "params": {
          "_hashContent": "Hash Content"
        }
      },
      "saveNewVersion(string,uint256)": {
        "details": "saveNewVersion new version",
        "params": {
          "_hashContent": "Hash Content, _reference Paper Reference"
        }
      },
      "transferOwnership(address)": {
        "details": "Transfer contract ownership",
        "params": {
          "_newOwner": "New owner address"
        }
      },
      "withdrawBalance()": {
        "details": "Withdraw contract accumulated Eth balance"
      }
    }
  },
  "userdoc": {
    "methods": {}
  }
}